S00D00006B7A6C6F61642E6D6F74EF
S1070000720DFFFF7B
S1130004FFFFFFFFFFFFFFFFFFFFFFFFFFFFFFFFF8
S1130014FFFFFFFFFFFFFFFFFFFF8C018C01FFFFCA
S1130024FFFFFFFFFFFFFFFFFFFFFFFFFFFFFFFFD8
S1130034FFFFFFFFFFFFFFFFFFFFFFFFFFFFFFFFC8
S1130044FFFFFFFFFFFFFFFFFFFFFFFFFFFFFFFFB8
S1130054FFFFFFFFFFFFFFFFFFFFFFFFFFFFFFFFA8
S1130064FFFFFFFFFFFFFFFFFFFFFFFFFFFFFFFF98
S10F0074FFFFFFFFFFFFFFFFFFFFFFFF88
S10700C0EFFFE885DD
S10D00C4000000000000000000002E
S11300D80000000000000000000000000000000014
S11300E80000000000000000000000000000000004
S10F00F8000000000000000000000000F8
S1130104A804BDF001BDF00442EFBDF2A806BDF0A1
S1130114ADF2BDF4DAF4ADF078000000D72008F6AF
S1130124B806EC3E0100A806BDF0B800F6B802FC1F
S1130134040100A806BDF0A1B806A8064402007193
S1130144FF61E3EC2A0100F6B804BDF01008D720DF
S113015406A80ABDF001BDF00442EFBDF0BDF2FAF9
S1130164F2ABBDF0B80444000061F8EC890100A8C6
S11301740ABDF0B800A80CBDF0B802A804BDF0BDD7
S1130184F2DAF261DA1006D7C1C3C5C7A800C130D8
S11301940200C1FC530100C0C0C6C4C2C061FC203B
S11301A404A808BDF0B802ECD60100A802BDF0A171
S11301B4B802880A9DF2ADF0BDF4DAF48DF2480079
S11301C400A80C04FFFFB80CA80E61D8A104FFFF1B
S11301D4B80EA80E44000071FFA80C61F844000096
S11301E461F3ECAF0100A808BDF0B800BDF0100441
S11301F4D72006A80ABDF0B804A80CBDF0B802ECD8
S11302043A0200A804BDF0A1B804A802BDF2A1B842
S113021402ADF2BDF4FAF48B9DF2ADF0BDF4DAF460
S11302248DF2480000A80E04FFFFB80EA81061D890
S1130234A104FFFFB810A810440000A80E61F844FC
S1130244000061E8EC070200A80ABDF0B800BDF0A4
S11302541006D72008A80CBDF0B806A80EBDF0B847
S113026404ECDA0200A806BDF0BDF4FAF48B9DF2A6
S1130274A804BDF0BDF4FAF48B9DF08DF24BF0614B
S1130284F8ECBF0200A806BDF0BDF4FAF48B9DF2AD
S1130294A804BDF0BDF4FAF48B9DF08DF24BF0612B
S11302A4E3ECB00200E6B800ECB5020030FFFFB89E
S11302B400A800BDF0B802ECEF0200A806A1B8063D
S11302C4A804A1B804A81004FFFFB810A81261D8A8
S11302D4A104FFFFB812A812440000A81061F84456
S11302E4000061E8EC690200F6B802A802BDF0104F
S11302F408D72004F6B802EC0B0300A808A1B80838
S1130304A802BDF0A1B802A808BDF0BDF2FAF28BB0
S11303149DF0D4F061E8ECFF0200A802BDF0B8003F
S1130324BDF01004D72004A808BDF0B802A80ABD83
S1130334F0BDF4FAF48B9DF2A808BDF0BDF4DAF430
S11303448DF2480000A80ABDF0BDF2FAF28B9DF0CC
S1130354D4F061E8EC600300EC6E0300A808A1B8D3
S113036408A80AA1B80AEC310300A802BDF4B80035
S1130374BDF01004D72004ECDF0300A808BDF0BDD1
S1130384F4FAF48B9DF2A80ABDF0BDF4FAF48B9D43
S1130394F08DF24BF061F8ECD50300A808BDF0BD74
S11303A4F4FAF48B9DF2A80ABDF0BDF4FAF48B9D23
S11303B4F08DF24BF061E3ECC60300E6B800ECCB3D
S11303C4030030FFFFB800A800BDF0B802EC080435
S11303D400A808A1B808A80AA1B80AA808BDF0BDD5
S11303E4F2FAF28B9DF0D4F061E8EC7F0300A80AE2
S11303F4BDF0BDF4FAF48B9DF0D4F061E8EC7F0316
S113040400F6B802A802BDF01004D72004EC7C0462
S113041400A808BDF0BDF4FAF48B9DF2A80ABDF05F
S1130424BDF4FAF48B9DF08DF24BF061F8EC6B049F
S113043400A808BDF0BDF4FAF48B9DF2A80ABDF03F
S1130444BDF4FAF48B9DF08DF24BF061E3EC5C04A3
S113045400E6B800EC61040030FFFFB800A800BD5A
S1130464F0B802ECB00400A808A1B808A80AA1B81E
S11304740AA80CBDF0B1B80CA808BDF0BDF2FAF29C
S11304848B9DF0D4F061E8ECA20400A80ABDF0BD91
S1130494F4FAF48B9DF0D4F061F8ECAD0400A80CEC
S11304A444000061E8EC150400F6B802A802BDF0AB
S11304B41004D7200288064C0A61E8ECCB040051EE
S11304C40D9800FC670C0088069DF09800FC670CEE
S11304D4001002D72004FC940C008DF098034C0DFA
S11304E461F8ECF2040088039DF0ECF50400CDF00F
S11304F40A8DF098039DF09800FCB7040088039DCE
S1130504F01004D72004EC240500A808BDF0A1B819
S113051408ADF0BDF2FAF28B9DF09800FCB704002C
S1130524A808BDF0BDF2FAF28B9DF0D4F061E8ECBA
S11305340E0500F6B802BDF01004D7200AF6B80878
S1130544FCD804008DF098074C0A61E8EC570500C8
S1130554F19807A808BDF0B804A1B808A804BDF42C
S1130564B80216A80E07BDF088079DF2ADF0BDF4DD
S1130574DAF48DF24800008807D161E8EC44050000
S1130584A808B1B800BDF0100AD761EFC161CF204B
S113059410AEF8BDF6040500BDF4040800B80EBDA1
S11305A4F4B1B80EADF4BDE8DAE8F1480000A818D7
S11305B4440000A81661F844000061E8ECDA050080
S11305C4A81A44000061E8ECDA0500A81ABDF4A1F5
S11305D4B81AEC380600EC380600A80EBDF4B1B81D
S11305E40E88165C0F9DF088175C009DF188185CDA
S11305F4009DF288195C009DF3ADF0040020168B75
S11306049DF6ADF4BDE8DAE88DF6480000A816318D
S11306144D98168817708818314D9817A818314EBC
S1130624B818A81A44000061F8EC380600A81ABDEA
S1130634F4B1B81AA818440000A81661F8440000DC
S113064461E8ECDE0500A81A44000061E8ECDE056C
S113065400A80EA1BDF0B800FC080500F6B802BD60
S1130664F0101061EFC061CFD72010C9F226FFC982
S1130674F026FFADF0BDF4FAF48B9DF0312A9DF021
S11306845AF0017AF0FF5AF0015AF0018DF0312941
S11306949DF0ADF2BDF4FAF48B9DF15AF1FB8DF1AA
S11306A46BF09DF0ADF2DAF48DF0480000FCD80450
S11306B4008DF0705100B80E440A0061F8ECEE06A7
S11306C400AF00EFBDF0B80CBDF2B80AA1BDF0BF95
S11306D400EF880E9DF0A80ABDF40402EFBDF4DA1D
S11306E4F48DF0480000EC580700AF00EFBDF0B8FB
S11306F408BDF2B806A1BDF0BF00EFA806BDF4041E
S113070402EFBDF4DAF4F14800003002EFB800302F
S11307141120B802300400B804FC0F0400ADF04406
S1130724000061E8EC4207003006EFB800FC08055D
S113073400301620B800FC080500EC4B0700301804
S113074420B800FC080500302220B800FC0805008D
S1130754F6BF00EF1010D7C9F006FFADF0BDF4FAF0
S1130764F48B9DF25AF2FBADF0DAF48DF2480000FA
S1130774C9F026FFADF0BDF4FAF48B9DF25AF2FBF6
S1130784ADF0DAF48DF2480000FC210100FC4409C8
S113079400D761EFC1C361CF201C882971FC61C8F3
S11307A4ECBA0700302520B800FC08050030FFFF30
S11307B4B816ECAE0800F6B818F6B81AEC720800CD
S11307C4A818BDF0A82406F0BDF0BDF2FAF28B9D82
S11307D4F09DE8F4E9F4EAF4EBADE8B800ADEAB866
S11307E402300200B804FC8E050088185C0F980ED1
S11307F488195C00980F881A5C009810881B5C00A8
S11308049811A810440000A80E61F8440F0061E890
S1130814EC250800301620B800FC080500EC61083B
S11308240088185C0F980A88195C00980B881A5C75
S113083400980C881B5C00980DA80C440000A80ABE
S113084461F844070061E8EC580800302F20B80030
S1130854FC080500302F20B800FC080500A8180483
S11308640100B818A81A61D8A1040000B81AA8266F
S1130874BDF0B812A828BDF2B814A818BDF0B80683
S1130884A81ABDF2B808A806BDF0A808BDF2A814B9
S113089446F2A81261F846F061F3ECC4070030167E
S11308A420B800FC080500F6B816A816BDF0101C04
S11308B461EFC2C061CFD72004717BFAFC5B0700EF
S11308C4303120B800FC080500300200B800306D57
S11308D406B802FC040100FC3C0D00717AFAECE257
S11308E408002002C9F00001ADF0BDF2FAF2ABBD7C
S11308F4F08DF05C209DF28DF15C009DF3E4F0AD8D
S1130904F244000061F8EC100900F4F08DF0705129
S113091400B800BDF01002D72006C9F00201ADF002
S1130924BDF2FAF2ABBDF2B804BDF0B80288025CC1
S113093420980088035C009801A800BDF01006D735
S113094461EFC1C361CF2002C9E8F000FAE88B9DCE
S1130954EA6AEA048DEA9B00000000C9E82601DA89
S1130964E8304400780000C9EA2401C9E82401FA03
S1130974E8ABBDE88DE86C039DF68DE96C009DF74A
S1130984DAEAADF6780000C9F6E5FFADF6BDF0FA93
S1130994F08B9DE86AE820ADF6BDF2DAF28DE84802
S11309A40000C9F6E1FFADF6BDF4FAF48B9DE85AF4
S11309B4E8DFADF6BDF0DAF08DE8480000C9F6E5ED
S11309C4FFADF6BDF2FAF28B9DE86AE840ADF6BDE0
S11309D4F4DAF48DE8480000C9F6E1FFADF6BDF0A1
S11309E4FAF08B9DE85AE8BFADF6BDF2DAF28DE871
S11309F4480000C9F6E5FFADF6BDF4FAF48B9DE8B2
S1130A046AE880ADF6BDF0DAF08DE8480000C9F676
S1130A14E1FFADF6BDF2FAF28B9DE85AE87FADF63C
S1130A24BDF4DAF48DE8480000C9F6EDFFADF6BD77
S1130A34F0FAF08B9DE86AE820ADF6BDF2DAF28DA7
S1130A44E8480000C9F6E9FFADF6BDF4FAF48B9D5D
S1130A54E86AE820ADF6BDF0DAF08DE8480000C994
S1130A64F6EDFFADF6BDF2FAF28B9DE86AE840AD0F
S1130A74F6BDF4DAF48DE8480000C9F6E9FFADF6F2
S1130A84BDF0FAF08B9DE86AE840ADF6BDF2DAF207
S1130A948DE8480000C9F61001ADF6BDF4DAF4306F
S1130AA42200780000C9F61801ADF6BDF0DAF03082
S1130AB49780780000C9F610FFADF6BDF2DAF23083
S1130AC400CE780000C9F67000C9E87000FAE88B1B
S1130AD49DE86AE801ADF6BDF4DAF48DE848000057
S1130AE4C9F60A01ADF6BDF0DAF03007007800006B
S1130AF4C9F61201ADF6BDF2DAF230220178000033
S1130B04C9F61A01ADF6BDF4DAF430974078000062
S1130B14C9F612FFADF6BDF0DAF03000CE7800006D
S1130B24C9E82801C9F62801ADF6BDF2FAF2ABBD55
S1130B34F68DF66C019DF48DF76C009DF5DAE8AD45
S1130B44F4780000C9F62A01C9F42A01ADF4BDF011
S1130B54FAF0ABBDF48DF46C019DF28DF56C009D3F
S1130B64F3ADF6BDF4DAF4ADF2780000C9F221FF76
S1130B74C9F421FFADF4BDF0FAF08B9DF46AF402DC
S1130B84ADF2BDF0DAF08DF4480000C9F201FFC9FA
S1130B94F401FFADF4BDF0FAF08B9DF46AF404ADF6
S1130BA4F2BDF0DAF08DF4480000C9F221FFC9F473
S1130BB421FFADF4BDF0FAF08B9DF45AF4FBADF2D1
S1130BC4BDF0DAF08DF4480000C9F42201C9F22220
S1130BD401ADF2BDF0FAF0ABBDF28DF26C039DF001
S1130BE48DF36C009DF1ADF4BDF2DAF2ADF0780052
S1130BF400C9F0E1FFADF0BDF4FAF48B9DF25AF2B2
S1130C04DFADF0DAF48DF2480000C9F0E1FFADF095
S1130C14BDF4FAF48B9DF25AF2BFADF0DAF48DF21E
S1130C24480000C9F0E5FFADF0BDF4FAF48B9DF281
S1130C346AF220ADF0DAF48DF2480000C9F0E5FF61
S1130C44ADF0BDF4FAF48B9DF25AF2BFADF0DAF4D0
S1130C548DF2480000F6B800BDF0100261EFC2C086
S1130C6461CFD7200200FCE60800ADF04400006127
S1130C74F8EC6A0C00C9F010FF88069DF2ADF0BDD3
S1130C84F4DAF48DF2480000F6B800BDF01002D78F
S1130C9400FC1C0900ADF044000061F8EC950C0064
S1130CA4C9F012FFADF0BDF2FAF28B9DF0D7200229
S1130CB4C9F0E5FFADF0BDF2FAF28B9DF05C209D26
S1130CC4F1E4F0D4F161F8ECD10C00F4F08DF0709F
S1130CD45100B800BDF01002D7C9F0E5FFADF0BD76
S1130CE4F4FAF48B9DF25AF2DFADF0DAF48DF248A3
S1130CF40000D7C9F0E5FFADF0BDF4FAF48B9DF222
S1130D046AF220ADF0DAF48DF2480000D72002C96B
S1130D14F0E5FFADF0BDF2FAF28B9DF05C409DF17D
S1130D24E4F0D4F161F8EC300D00F4F08DF070517E
S1130D3400B800BDF01002D7C9F0E5FFADF0BDF472
S1130D44FAF48B9DF25AF2BFADF0DAF48DF2480056
S1130D5400D7C9F0E5FFADF0BDF4FAF48B9DF26A57
S1130D64F240ADF0DAF48DF2480000D7720DCBF8FE
S1130D7400FE410061CF3404013600EF61DF360028
S1130D84EF3000EF27311E440000DD0EB161CF11B6
S1130D94A9BBA5A5A7A761DFEFED61CF3600EF30AE
S1130DA4000061DF3082EF27311E440000DD0AB108
S1130DB461CFBBA7A761DFEFF161CF300000C1C1F0
S10B0DC4C1FCBB0800EFFE00B6
S1132000303132333435363738396162636465666A
S1132010006563686F000A00756E6B6E6F776E2ED5
S11320200A003E20006E6F20646174612E0A002055
S11220300048656C6C6F20576F726C642E0A0049
S9030D727D
