S00D00006B7A6C6F61642E6D6F74EF
S1070000BC0DFFFF31
S113000410011C012801340140014C015801640110
S113001470017C0188019401A001AC01B801C40100
S1130024D001DC01E801F40100020C0218022402EC
S113003430023C0248025402FFFFFFFFFFFF60024C
S11300446C027802840290029C02A802B402C002E8
S1130054CC02FFFFFFFFFFFFFFFFD802FFFFE40214
S1130064FFFFFFFFFFFFFFFFFFFFFFFFFFFFFFFF98
S10F0074FFFFFFFFFFFFFFFFFFFFF00294
S10700C0EFFFE885DD
S10D00C4000000000000000000002E
S11300D80000000000000000000000000000000014
S11300E80000000000000000000000000000000004
S11300F800000000000000000000000000000000F4
S107010800000000EF
S107010CFFFFFFFFEF
S113011061CFC1C3C5C7C6C4C2C061FC61CFC1C37E
S1130120C5C7C6C4C2C061FC61CFC1C3C5C7C6C40C
S1130130C2C061FC61CFC1C3C5C7C6C4C2C061FC33
S113014061CFC1C3C5C7C6C4C2C061FC61CFC1C34E
S1130150C5C7C6C4C2C061FC61CFC1C3C5C7C6C4DC
S1130160C2C061FC61CFC1C3C5C7C6C4C2C061FC03
S113017061CFC1C3C5C7C6C4C2C061FC61CFC1C31E
S1130180C5C7C6C4C2C061FC61CFC1C3C5C7C6C4AC
S1130190C2C061FC61CFC1C3C5C7C6C4C2C061FCD3
S11301A061CFC1C3C5C7C6C4C2C061FC61CFC1C3EE
S11301B0C5C7C6C4C2C061FC61CFC1C3C5C7C6C47C
S11301C0C2C061FC61CFC1C3C5C7C6C4C2C061FCA3
S11301D061CFC1C3C5C7C6C4C2C061FC61CFC1C3BE
S11301E0C5C7C6C4C2C061FC61CFC1C3C5C7C6C44C
S11301F0C2C061FC61CFC1C3C5C7C6C4C2C061FC73
S113020061CFC1C3C5C7C6C4C2C061FC61CFC1C38D
S1130210C5C7C6C4C2C061FC61CFC1C3C5C7C6C41B
S1130220C2C061FC61CFC1C3C5C7C6C4C2C061FC42
S113023061CFC1C3C5C7C6C4C2C061FC61CFC1C35D
S1130240C5C7C6C4C2C061FC61CFC1C3C5C7C6C4EB
S1130250C2C061FC61CFC1C3C5C7C6C4C2C061FC12
S113026061CFC1C3C5C7C6C4C2C061FC61CFC1C32D
S1130270C5C7C6C4C2C061FC61CFC1C3C5C7C6C4BB
S1130280C2C061FC61CFC1C3C5C7C6C4C2C061FCE2
S113029061CFC1C3C5C7C6C4C2C061FC61CFC1C3FD
S11302A0C5C7C6C4C2C061FC61CFC1C3C5C7C6C48B
S11302B0C2C061FC61CFC1C3C5C7C6C4C2C061FCB2
S11302C061CFC1C3C5C7C6C4C2C061FC61CFC1C3CD
S11302D0C5C7C6C4C2C061FC61CFC1C3C5C7C6C45B
S11302E0C2C061FC61CFC1C3C5C7C6C4C2C061FC82
S11302F061CFC1C3C5C7C6C4C2C061FC2004A8087D
S1130300BDF0B802EC2F0300A802BDF0A1B802882A
S11303100A9DF2ADF0BDF4DAF48DF2480000A80CA9
S113032004FFFFB80CA80E61D8A104FFFFB80EA803
S11303300E44000071FFA80C61F844000061F3EC66
S1130340080300A808BDF0B800BDF01004D72006CB
S1130350A80ABDF0B804A80CBDF0B802EC930300E1
S1130360A804BDF0A1B804A802BDF2A1B802ADF280
S1130370BDF4FAF48B9DF2ADF0BDF4DAF48DF248DD
S11303800000A80E04FFFFB80EA81061D8A104FF56
S1130390FFB810A810440000A80E61F844000061E2
S11303A0E8EC600300A80ABDF0B800BDF01006D761
S11303B02008A80CBDF0B806A80EBDF0B804EC33B4
S11303C00400A806BDF0BDF4FAF48B9DF2A804BDA8
S11303D0F0BDF4FAF48B9DF08DF24BF061F8EC185B
S11303E00400A806BDF0BDF4FAF48B9DF2A804BD88
S11303F0F0BDF4FAF48B9DF08DF24BF061E3EC095F
S11304000400E6B800EC0E040030FFFFB800A800BA
S1130410BDF0B802EC480400A806A1B806A804A1DF
S1130420B804A81004FFFFB810A81261D8A104FFF3
S1130430FFB812A812440000A81061F8440000613B
S1130440E8ECC20300F6B802A802BDF01008D720F9
S113045004F6B802EC640400A808A1B808A802BD18
S1130460F0A1B802A808BDF0BDF2FAF28B9DF0D459
S1130470F061E8EC580400A802BDF0B800BDF0102B
S113048004D72004A808BDF0B802A80ABDF0BDF442
S1130490FAF48B9DF2A808BDF0BDF4DAF48DF248AD
S11304A00000A80ABDF0BDF2FAF28B9DF0D4F06111
S11304B0E8ECB90400ECC70400A808A1B808A80A2D
S11304C0A1B80AEC8A0400A802BDF4B800BDF0107B
S11304D004D72004EC380500A808BDF0BDF4FAF4F4
S11304E08B9DF2A80ABDF0BDF4FAF48B9DF08DF259
S11304F04BF061F8EC2E0500A808BDF0BDF4FAF449
S11305008B9DF2A80ABDF0BDF4FAF48B9DF08DF238
S11305104BF061E3EC1F0500E6B800EC2405003065
S1130520FFFFB800A800BDF0B802EC610500A80800
S1130530A1B808A80AA1B80AA808BDF0BDF2FAF249
S11305408B9DF0D4F061E8ECD80400A80ABDF0BD9E
S1130550F4FAF48B9DF0D4F061E8ECD80400F6B81A
S113056002A802BDF01004D72004ECD50500A808A9
S1130570BDF0BDF4FAF48B9DF2A80ABDF0BDF4FA07
S1130580F48B9DF08DF24BF061F8ECC40500A808E3
S1130590BDF0BDF4FAF48B9DF2A80ABDF0BDF4FAE7
S11305A0F48B9DF08DF24BF061E3ECB50500E6B8F9
S11305B000ECBA050030FFFFB800A800BDF0B80297
S11305C0EC090600A808A1B808A80AA1B80AA80C52
S11305D0BDF0B1B80CA808BDF0BDF2FAF28B9DF0E5
S11305E0D4F061E8ECFB0500A80ABDF0BDF4FAF410
S11305F08B9DF0D4F061F8EC060600A80C440000D2
S113060061E8EC6E0500F6B802A802BDF01004D74C
S1130610200288064C0A61E8EC240600510D98007B
S1130620FC6F0D0088069DF09800FC6F0D00100211
S1130630D72004FC9C0D008DF098034C0D61F8EC60
S11306404B060088039DF0EC4E0600CDF00A8DF0B9
S113065098039DF09800FC10060088039DF0100498
S1130660D72004EC7D0600A808BDF0A1B808ADF0C1
S1130670BDF2FAF28B9DF09800FC100600A808BDAC
S1130680F0BDF2FAF28B9DF0D4F061E8EC6706005D
S1130690F6B802BDF01004D7200AF6B808FC3106FB
S11306A0008DF098074C0A61E8ECB00600F1980759
S11306B0A808BDF0B804A1B808A804BDF4B802168F
S11306C0A80E07BDF088079DF2ADF0BDF4DAF48DF5
S11306D0F24800008807D161E8EC9D0600A808B143
S11306E0B800BDF0100AD761EFC161CF2010AEF899
S11306F0BDF6040500BDF4040800B80EBDF4B1B89D
S11307000EADF4BDE8DAE8F1480000A81844000092
S1130710A81661F844000061E8EC330700A81A4405
S1130720000061E8EC330700A81ABDF4A1B81AEC84
S1130730910700EC910700A80EBDF4B1B80E88161D
S11307405C0F9DF088175C009DF188185C009DF299
S113075088195C009DF3ADF0040020168B9DF6AD66
S1130760F4BDE8DAE88DF6480000A816314D981675
S11307708817708818314D9817A818314EB818A8E2
S11307801A44000061F8EC910700A81ABDF4B1B84E
S11307901AA818440000A81661F844000061E8ECA7
S11307A0370700A81A44000061E8EC370700A80ED8
S11307B0A1BDF0B800FC610600F6B802BDF010104F
S11307C061EFC061CFD7C9F006FFADF0BDF4FAF414
S11307D08B9DF25AF2FBADF0DAF48DF2480000C9B9
S11307E0F026FFADF0BDF4FAF48B9DF25AF2FBADA6
S11307F0F0DAF48DF2480000FC4C0A00D761EFC136
S1130800C361CF201C882971FC61C8EC2108003029
S11308101120B800FC61060030FFFFB816EC150982
S113082000F6B818F6B81AECD90800A818BDF0A854
S11308302406F0BDF0BDF2FAF28B9DF09DE8F4E9D8
S1130840F4EAF4EBADE8B800ADEAB802300200B85F
S113085004FCE7060088185C0F980E88195C009861
S11308600F881A5C009810881B5C009811A810442B
S11308700000A80E61F8440F0061E8EC8C08003019
S11308801B20B800FC610600ECC8080088185C0F47
S1130890980A88195C00980B881A5C00980C881BCD
S11308A05C00980DA80C440000A80A61F8440700F5
S11308B061E8ECBF0800301D20B800FC6106003080
S11308C01D20B800FC610600A818040100B818A88F
S11308D01A61D8A1040000B81AA826BDF0B812A85D
S11308E028BDF2B814A818BDF0B806A81ABDF2B80D
S11308F008A806BDF0A808BDF2A81446F2A8126123
S1130900F846F061F3EC2B0800301B20B800FC61C2
S11309100600F6B816A816BDF0101C61EFC2C0613F
S1130920CFD761EFC1C361CF200EFCC60700301FD3
S113093020B800FC610600302820B800FC610600E5
S11309403004EFB800FC9806003004EFB800302EF5
S113095020B802FCD20400ADF044000061F8ECEAD7
S113096009003004EFB800303220B802FCD2040091
S1130970ADF044000061E8ECDD0900303720B80038
S1130980FC610600AF00EFBDF0B80AAF02EFBDF0A6
S1130990B80CA80ABDF0B806A80CBDF0B808A806A3
S11309A0BDF0B800A808BDF0B802F6B804FCE7062C
S11309B000301B20B800FC610600AF14EFBDF0AF9F
S11309C000EFBDE8AF02EFBDEAADF0B800ADE8B8A6
S11309D002ADEAB804FCFD0700ECEA0900303E2051
S11309E0B800FC610600EC370900EC37090020026E
S11309F0C9F00001ADF0BDF2FAF2ABBDF08DF05CD0
S1130A00209DF28DF15C009DF3E4F0ADF244000012
S1130A1061F8EC180A00F4F08DF0705100B800BDD4
S1130A20F01002D72006C9F00201ADF0BDF2FAF2CF
S1130A30ABBDF2B804BDF0B80288025C209800880F
S1130A40035C009801A800BDF01006D761EFC1C394
S1130A5061CF2002C9E8F000FAE88B9DEA6AEA0453
S1130A608DEA9B00000000C9E82601DAE830440062
S1130A70780000C9EA2401C9E82401FAE8ABBDE81A
S1130A808DE86C039DF68DE96C009DF7DAEAADF60E
S1130A90780000C9F6E5FFADF6BDF0FAF08B9DE8ED
S1130AA06AE820ADF6BDF2DAF28DE8480000C9F636
S1130AB0E1FFADF6BDF4FAF48B9DE85AE8DFADF63C
S1130AC0BDF0DAF08DE8480000C9F6E5FFADF6BDEB
S1130AD0F2FAF28B9DE86AE840ADF6BDF4DAF48DE3
S1130AE0E8480000C9F6E1FFADF6BDF0FAF08B9DD1
S1130AF0E85AE8BFADF6BDF2DAF28DE8480000C965
S1130B00F6E5FFADF6BDF4FAF48B9DE86AE880AD36
S1130B10F6BDF0DAF08DE8480000C9F6E1FFADF665
S1130B20BDF2FAF28B9DE85AE87FADF6BDF4DAF433
S1130B308DE8480000C9F6EDFFADF6BDF0FAF08B84
S1130B409DE86AE820ADF6BDF2DAF28DE8480000CF
S1130B50C9F6E9FFADF6BDF4FAF48B9DE86AE82026
S1130B60ADF6BDF0DAF08DE8480000C9F6EDFFAD52
S1130B70F6BDF2FAF28B9DE86AE840ADF6BDF4DA10
S1130B80F48DE8480000C9F6E9FFADF6BDF0FAF0CF
S1130B908B9DE86AE840ADF6BDF2DAF28DE84800D4
S1130BA000C9F61001ADF6BDF4DAF4302200780085
S1130BB000C9F61801ADF6BDF0DAF0309780780080
S1130BC000C9F610FFADF6BDF2DAF23000CE7800BF
S1130BD000C9F67000C9E87000FAE88B9DE86AE87D
S1130BE001ADF6BDF4DAF48DE8480000C9F60A0157
S1130BF0ADF6BDF0DAF0300700780000C9F6120156
S1130C00ADF6BDF2DAF2302201780000C9F61A011D
S1130C10ADF6BDF4DAF4309740780000C9F612FF5F
S1130C20ADF6BDF0DAF03000CE780000C9E8280156
S1130C30C9F62801ADF6BDF2FAF2ABBDF68DF66C3D
S1130C40019DF48DF76C009DF5DAE8ADF4780000B1
S1130C50C9F62A01C9F42A01ADF4BDF0FAF0ABBD1E
S1130C60F48DF46C019DF28DF56C009DF3ADF6BD31
S1130C70F4DAF4ADF2780000C9F221FFC9F421FFDF
S1130C80ADF4BDF0FAF08B9DF46AF402ADF2BDF060
S1130C90DAF08DF4480000C9F201FFC9F401FFAD98
S1130CA0F4BDF0FAF08B9DF46AF404ADF2BDF0DA11
S1130CB0F08DF4480000C9F221FFC9F421FFADF41E
S1130CC0BDF0FAF08B9DF45AF4FBADF2BDF0DAF00E
S1130CD08DF4480000C9F42201C9F22201ADF2BD2D
S1130CE0F0FAF0ABBDF28DF26C039DF08DF36C0065
S1130CF09DF1ADF4BDF2DAF2ADF0780000C9F0E197
S1130D00FFADF0BDF4FAF48B9DF25AF2DFADF0DAE8
S1130D10F48DF2480000C9F0E1FFADF0BDF4FAF43F
S1130D208B9DF25AF2BFADF0DAF48DF2480000C99F
S1130D30F0E5FFADF0BDF4FAF48B9DF25AF2DFADAD
S1130D40F0DAF48DF2480000C9F0E5FFADF0BDF42F
S1130D50FAF48B9DF25AF2BFADF0DAF48DF248004A
S1130D6000F6B800BDF0100261EFC2C061CFD72019
S1130D700200FCEE0900ADF044000061F8EC720DD5
S1130D8000C9F010FF88069DF2ADF0BDF4DAF48DD1
S1130D90F2480000F6B800BDF01002D700FC240AA7
S1130DA000ADF044000061F8EC9D0D00C9F012FFA5
S1130DB0ADF0BDF2FAF28B9DF0D7BC0DCBF800FE7E
S1130DC0410061CF340C013600EF61DF3600EF30B3
S1130DD004EF27311E440000DD0EB161CF11A9BB21
S1130DE0A5A5A7A761DFEFED61CF3604EF300000C2
S1130DF061DF3016EF27311E440000DD0AB161CFF8
S1130E00BBA7A761DFEFF161CF300000C1C1C1FC16
S1090E10220900EFFE00C0
S1132000303132333435363738396162636465666A
S1132010006E6F20646174612E0A000A0020007350
S11320207461727465642E006B7A203E20007275B0
S11320306E0064756D700073697A653A2000756E80
S10920406B6E6F776E0069
S9030DBC33
