:040000009706FFFF61
:10000400DC00E800F40000010C01180124013001B7
:100014003C014801540160016C01780184019001A4
:100024009C01A801B401C001CC01D801E401F00194
:10003400FC01080214022002FFFFFFFFFFFF2C0255
:100044003802440250025C026802740280028C028C
:100054009802FFFFFFFFFFFFFFFFA402FFFFB002B4
:10006400FFFFFFFFFFFFFFFFFFFFFFFFFFFFFFFF9C
:0C007400FFFFFFFFFFFFFFFFFFFFBC02CC
:0400C000EFFFE885E1
:0A00C4000000000000000000000032
:0400D8000000000024
:1000DC0061CFC1C3C5C7C6C4C2C061FC61CFC1C3B7
:1000EC00C5C7C6C4C2C061FC61CFC1C3C5C7C6C445
:1000FC00C2C061FC61CFC1C3C5C7C6C4C2C061FC6C
:10010C0061CFC1C3C5C7C6C4C2C061FC61CFC1C386
:10011C00C5C7C6C4C2C061FC61CFC1C3C5C7C6C414
:10012C00C2C061FC61CFC1C3C5C7C6C4C2C061FC3B
:10013C0061CFC1C3C5C7C6C4C2C061FC61CFC1C356
:10014C00C5C7C6C4C2C061FC61CFC1C3C5C7C6C4E4
:10015C00C2C061FC61CFC1C3C5C7C6C4C2C061FC0B
:10016C0061CFC1C3C5C7C6C4C2C061FC61CFC1C326
:10017C00C5C7C6C4C2C061FC61CFC1C3C5C7C6C4B4
:10018C00C2C061FC61CFC1C3C5C7C6C4C2C061FCDB
:10019C0061CFC1C3C5C7C6C4C2C061FC61CFC1C3F6
:1001AC00C5C7C6C4C2C061FC61CFC1C3C5C7C6C484
:1001BC00C2C061FC61CFC1C3C5C7C6C4C2C061FCAB
:1001CC0061CFC1C3C5C7C6C4C2C061FC61CFC1C3C6
:1001DC00C5C7C6C4C2C061FC61CFC1C3C5C7C6C454
:1001EC00C2C061FC61CFC1C3C5C7C6C4C2C061FC7B
:1001FC0061CFC1C3C5C7C6C4C2C061FC61CFC1C396
:10020C00C5C7C6C4C2C061FC61CFC1C3C5C7C6C423
:10021C00C2C061FC61CFC1C3C5C7C6C4C2C061FC4A
:10022C0061CFC1C3C5C7C6C4C2C061FC61CFC1C365
:10023C00C5C7C6C4C2C061FC61CFC1C3C5C7C6C4F3
:10024C00C2C061FC61CFC1C3C5C7C6C4C2C061FC1A
:10025C0061CFC1C3C5C7C6C4C2C061FC61CFC1C335
:10026C00C5C7C6C4C2C061FC61CFC1C3C5C7C6C4C3
:10027C00C2C061FC61CFC1C3C5C7C6C4C2C061FCEA
:10028C0061CFC1C3C5C7C6C4C2C061FC61CFC1C305
:10029C00C5C7C6C4C2C061FC61CFC1C3C5C7C6C493
:1002AC00C2C061FC61CFC1C3C5C7C6C4C2C061FCBA
:1002BC0061CFC1C3C5C7C6C4C2C061FC20028806D9
:1002CC004C0A61E8ECDC0200510D9800FC68060059
:1002DC0088069DF09800FC6806001002D72004ECFC
:1002EC00000300A808BDF0BDF2FAF28B9DF0980057
:1002FC00FCC80200A808BDF0BDF2FAF28B9DF0D448
:10030C00F061E8ECEF0200F6B802BDF01004D72063
:10031C0002FC450300300020B800FCE90200EC2A86
:10032C0003002002C9F00001ADF0BDF2FAF2ABBD42
:10033C00F0F6B800BDF01002D761EFC1C361CF2059
:10034C0002C9E8F000FAE88B9DEA6AEA048DEA9BA0
:10035C0000000000C9E82601DAE83044007800000B
:10036C00C9EA2401C9E82401FAE8ABBDE88DE86CC0
:10037C00039DF68DE96C009DF7DAEAADF678000086
:10038C00C9F6E5FFADF6BDF0FAF08B9DE86AE82002
:10039C00ADF6BDF2DAF28DE8480000C9F6E1FFAD2A
:1003AC00F6BDF4FAF48B9DE85AE8DFADF6BDF0DA51
:1003BC00F08DE8480000C9F6E5FFADF6BDF2FAF2A3
:1003CC008B9DE86AE840ADF6BDF4DAF48DE84800A0
:1003DC0000C9F6E1FFADF6BDF0FAF08B9DE85AE8E6
:1003EC00BFADF6BDF2DAF28DE8480000C9F6E5FFC4
:1003FC00ADF6BDF4FAF48B9DE86AE880ADF6BDF07D
:10040C00DAF08DE8480000C9F6E1FFADF6BDF2FA6E
:10041C00F28B9DE85AE87FADF6BDF4DAF48DE8482E
:10042C000000C9F6EDFFADF6BDF0FAF08B9DE86A61
:10043C00E820ADF6BDF2DAF28DE8480000C9F6E925
:10044C00FFADF6BDF4FAF48B9DE86AE820ADF6BD7D
:10045C00F0DAF08DE8480000C9F6EDFFADF6BDF21C
:10046C00FAF28B9DE86AE840ADF6BDF4DAF48DE85B
:10047C00480000C9F6E9FFADF6BDF0FAF08B9DE837
:10048C006AE840ADF6BDF2DAF28DE8480000C9F634
:10049C001001ADF6BDF4DAF4302200780000C9F694
:1004AC001801ADF6BDF0DAF0309780780000C9F68F
:1004BC0010FFADF6BDF2DAF23000CE780000C9F6CE
:1004CC007000C9E87000FAE88B9DE86AE801ADF6A7
:1004DC00BDF4DAF48DE8480000C9F60A01ADF6BDAA
:1004EC00F0DAF0300700780000C9F61201ADF6BD65
:1004FC00F2DAF2302201780000C9F61A01ADF6BD2D
:10050C00F4DAF4309740780000C9F612FFADF6BD6E
:10051C00F0DAF03000CE780000C9E82801C9F628DE
:10052C0001ADF6BDF2FAF2ABBDF68DF66C019DF4A1
:10053C008DF76C009DF5DAE8ADF4780000C9F62A69
:10054C0001C9F42A01ADF4BDF0FAF0ABBDF48DF4A1
:10055C006C019DF28DF56C009DF3ADF6BDF4DAF4F3
:10056C00ADF2780000C9F221FFC9F421FFADF4BD52
:10057C00F0FAF08B9DF46AF402ADF2BDF0DAF08D76
:10058C00F4480000C9F201FFC9F401FFADF4BDF05D
:10059C00FAF08B9DF46AF404ADF2BDF0DAF08DF450
:1005AC00480000C9F221FFC9F421FFADF4BDF0FAF7
:1005BC00F08B9DF45AF4FBADF2BDF0DAF08DF448FB
:1005CC000000C9F42201C9F22201ADF2BDF0FAF02B
:1005DC00ABBDF28DF26C039DF08DF36C009DF1AD13
:1005EC00F4BDF2DAF2ADF0780000C9F0E1FFADF045
:1005FC00BDF4FAF48B9DF25AF2DFADF0DAF48DF221
:10060C00480000C9F0E1FFADF0BDF4FAF48B9DF2A7
:10061C005AF2BFADF0DAF48DF2480000C9F0E5FFF4
:10062C00ADF0BDF4FAF48B9DF25AF2DFADF0DAF4D2
:10063C008DF2480000C9F0E5FFADF0BDF4FAF48B83
:10064C009DF25AF2BFADF0DAF48DF2480000F6B824
:10065C0000BDF0100261EFC2C061CFD7200200FCD8
:10066C002E0300ADF044000061F8EC6B0600C9F0FD
:10067C0010FF88069DF2ADF0BDF4DAF48DF248005F
:10068C0000F6B800BDF01002D79706CBF800FEFCC0
:04069C001B0300003C
:0E20000048656C6C6F20576F726C64210A008B
:04000003000006975C
:00000001FF
