S00D00006B7A6C6F61642E6D6F74EF
S1070000A60BFFFF49
S1130004FFFFFFFFFFFFFFFFFFFFFFFFFFFFFFFFF8
S1130014FFFFFFFFFFFFFFFFFFFF11011101FFFFC0
S1130024FFFFFFFFFFFFFFFFFFFFFFFFFFFFFFFFD8
S1130034FFFFFFFFFFFFFFFFFFFFFFFFFFFFFFFFC8
S1130044FFFFFFFFFFFFFFFFFFFFFFFFFFFFFFFFB8
S1130054FFFFFFFFFFFFFFFFFFFFFFFFFFFFFFFFA8
S1130064FFFFFFFFFFFFFFFFFFFFFFFFFFFFFFFF98
S10F0074FFFFFFFFFFFFFFFFFFFFFFFF88
S10700C0EFFFE885DD
S10D00C4000000000000000000002E
S11300D80000000000000000000000000000000014
S11300E80000000000000000000000000000000004
S10B00F80000000000000000FC
S1130100A80444020061E8EC100100300300B804C4
S1130110D7C1C3C5C7300200C1AEF8C1FC0001009D
S1130120C0C0C6C4C2C061FC2004A808BDF0B802A7
S1130130EC5B0100A802BDF0A1B802880A9DF2ADF3
S1130140F0BDF4DAF48DF2480000A80C04FFFFB807
S11301500CA80E61D8A104FFFFB80EA80E4400003D
S113016071FFA80C61F844000061F3EC340100A8AD
S113017008BDF0B800BDF01004D72006A80ABDF0F1
S1130180B804A80CBDF0B802ECBF0100A804BDF08F
S1130190A1B804A802BDF2A1B802ADF2BDF4FAF40C
S11301A08B9DF2ADF0BDF4DAF48DF2480000A80E98
S11301B004FFFFB80EA81061D8A104FFFFB810A86F
S11301C010440000A80E61F844000061E8EC8C01C2
S11301D000A80ABDF0B800BDF01006D72008A80C8E
S11301E0BDF0B806A80EBDF0B804EC5F0200A80686
S11301F0BDF0BDF4FAF48B9DF2A804BDF0BDF4FA91
S1130200F48B9DF08DF24BF061F8EC440200A806EB
S1130210BDF0BDF4FAF48B9DF2A804BDF0BDF4FA70
S1130220F48B9DF08DF24BF061E3EC350200E6B8FF
S113023000EC3A020030FFFFB800A800BDF0B8029D
S1130240EC740200A806A1B806A804A1B804A8107A
S113025004FFFFB810A81261D8A104FFFFB812A8C8
S113026012440000A81061F844000061E8ECEE01BB
S113027000F6B802A802BDF01008D72004F6B802B0
S1130280EC900200A808A1B808A802BDF0A1B80229
S1130290A808BDF0BDF2FAF28B9DF0D4F061E8EC51
S11302A0840200A802BDF0B800BDF01004D72004F9
S11302B0A808BDF0B802A80ABDF0BDF4FAF48B9DFD
S11302C0F2A808BDF0BDF4DAF48DF2480000A80AE3
S11302D0BDF0BDF2FAF28B9DF0D4F061E8ECE502DA
S11302E000ECF30200A808A1B808A80AA1B80AEC17
S11302F0B60200A802BDF4B800BDF01004D7200473
S1130300EC640300A808BDF0BDF4FAF48B9DF2A8D8
S11303100ABDF0BDF4FAF48B9DF08DF24BF061F858
S1130320EC5A0300A808BDF0BDF4FAF48B9DF2A8C2
S11303300ABDF0BDF4FAF48B9DF08DF24BF061E34D
S1130340EC4B0300E6B800EC50030030FFFFB800AC
S1130350A800BDF0B802EC8D0300A808A1B808A855
S11303600AA1B80AA808BDF0BDF2FAF28B9DF0D438
S1130370F061E8EC040300A80ABDF0BDF4FAF48BC4
S11303809DF0D4F061E8EC040300F6B802A802BDC5
S1130390F01004D72004EC010400A808BDF0BDF45B
S11303A0FAF48B9DF2A80ABDF0BDF4FAF48B9DF02B
S11303B08DF24BF061F8ECF00300A808BDF0BDF439
S11303C0FAF48B9DF2A80ABDF0BDF4FAF48B9DF00B
S11303D08DF24BF061E3ECE10300E6B800ECE603D8
S11303E00030FFFFB800A800BDF0B802EC350400EF
S11303F0A808A1B808A80AA1B80AA80CBDF0B1B809
S11304000CA808BDF0BDF2FAF28B9DF0D4F061E8BF
S1130410EC270400A80ABDF0BDF4FAF48B9DF0D4D7
S1130420F061F8EC320400A80C44000061E8EC9A96
S11304300300F6B802A802BDF01004D72002880613
S11304404C0A61E8EC500400510D9800FC590B0073
S113045088069DF09800FC590B001002D72004FC7C
S1130460860B008DF098034C0D61F8EC770400883E
S1130470039DF0EC7A0400CDF00A8DF098039DF012
S11304809800FC3C040088039DF01004D72004EC81
S1130490A90400A808BDF0A1B808ADF0BDF2FAF2B5
S11304A08B9DF09800FC3C0400A808BDF0BDF2FA56
S11304B0F28B9DF0D4F061E8EC930400F6B802BD31
S11304C0F01004D7200AF6B808FC5D04008DF098FB
S11304D0074C0A61E8ECDC0400F19807A808BDF0B9
S11304E0B804A1B808A804BDF4B80216A80E07BD44
S11304F0F088079DF2ADF0BDF4DAF48DF248000007
S11305008807D161E8ECC90400A808B1B800BDF0BF
S1130510100AD761EFC161CF2010AEF8BDF6040513
S113052000BDF4040800B80EBDF4B1B80EADF4BDBE
S1130530E8DAE8F1480000A818440000A81661F8B9
S113054044000061E8EC5F0500A81A44000061E87B
S1130550EC5F0500A81ABDF4A1B81AECBD0500ECC7
S1130560BD0500A80EBDF4B1B80E88165C0F9DF051
S113057088175C009DF188185C009DF288195C0066
S11305809DF3ADF0040020168B9DF6ADF4BDE8DAC2
S1130590E88DF6480000A816314D98168817708823
S11305A018314D9817A818314EB818A81A440000ED
S11305B061F8ECBD0500A81ABDF4B1B81AA8184436
S11305C00000A81661F844000061E8EC630500A887
S11305D01A44000061E8EC630500A80EA1BDF0B860
S11305E000FC8D0400F6B802BDF0101061EFC0618C
S11305F0CFD7C9F006FFADF0BDF4FAF48B9DF25AE3
S1130600F2FBADF0DAF48DF2480000C9F026FFAD3C
S1130610F0BDF4FAF48B9DF25AF2FBADF0DAF48DEE
S1130620F2480000FC360800D761EFC1C361CF2057
S11306301C882971FC61C8EC4D0600301120B800FB
S1130640FC8D040030FFFFB816EC410700F6B81823
S1130650F6B81AEC050700A818BDF0A82406F0BDEA
S1130660F0BDF2FAF28B9DF09DE8F4E9F4EAF4EBC4
S1130670ADE8B800ADEAB802300200B804FC1305D6
S11306800088185C0F980E88195C00980F881A5C13
S1130690009810881B5C009811A810440000A80E54
S11306A061F8440F0061E8ECB80600301B20B80084
S11306B0FC8D0400ECF4060088185C0F980A881975
S11306C05C00980B881A5C00980C881B5C00980DE1
S11306D0A80C440000A80A61F844070061E8ECEBA8
S11306E00600301D20B800FC8D0400301D20B80029
S11306F0FC8D0400A818040100B818A81A61D8A138
S1130700040000B81AA826BDF0B812A828BDF2B893
S113071014A818BDF0B806A81ABDF2B808A806BDFA
S1130720F0A808BDF2A81446F2A81261F846F061D8
S1130730F3EC570600301B20B800FC8D0400F6B81B
S113074016A816BDF0101C61EFC2C061CFD72008F7
S1130750FCF20500717AFA301F20B800FC8D040009
S1130760302D20B800FC8D04003000EFB800FCC42C
S113077004003000EFB800303020B802300400B874
S113078004FC940300ADF044000061E8ECA607000B
S11307903004EFB800FC8D0400301B20B800FC8D41
S11307A00400EC6007003000EFB800303520B802D8
S11307B0FCFE0200ADF044000061E8ECC30700EC6D
S11307C0D00700303A20B800FC8D0400EC6007002C
S11307D0F6B806BDF01008D72002C9F00001ADF04C
S11307E0BDF2FAF2ABBDF08DF05C209DF28DF15CB0
S11307F0009DF3E4F0ADF244000061F8EC0208005F
S1130800F4F08DF0705100B800BDF01002D720064E
S1130810C9F00201ADF0BDF2FAF2ABBDF2B804BD0D
S1130820F0B80288025C20980088035C009801A854
S113083000BDF01006D761EFC1C361CF2002C9E843
S1130840F000FAE88B9DEA6AEA048DEA9B00000056
S113085000C9E82601DAE8304400780000C9EA2437
S113086001C9E82401FAE8ABBDE88DE86C039DF604
S11308708DE96C009DF7DAEAADF6780000C9F6E57B
S1130880FFADF6BDF0FAF08B9DE86AE820ADF6BD49
S1130890F2DAF28DE8480000C9F6E1FFADF6BDF4E6
S11308A0FAF48B9DE85AE8DFADF6BDF0DAF08DE896
S11308B0480000C9F6E5FFADF6BDF2FAF28B9DE8FB
S11308C06AE840ADF6BDF4DAF48DE8480000C9F6F4
S11308D0E1FFADF6BDF0FAF08B9DE85AE8BFADF646
S11308E0BDF2DAF28DE8480000C9F6E5FFADF6BDC9
S11308F0F4FAF48B9DE86AE880ADF6BDF0DAF08D89
S1130900E8480000C9F6E1FFADF6BDF2FAF28B9DAE
S1130910E85AE87FADF6BDF4DAF48DE8480000C982
S1130920F6EDFFADF6BDF0FAF08B9DE86AE820AD78
S1130930F6BDF2DAF28DE8480000C9F6E9FFADF63B
S1130940BDF4FAF48B9DE86AE820ADF6BDF0DAF068
S11309508DE8480000C9F6EDFFADF6BDF2FAF28B62
S11309609DE86AE840ADF6BDF4DAF48DE84800008D
S1130970C9F6E9FFADF6BDF0FAF08B9DE86AE840F0
S1130980ADF6BDF2DAF28DE8480000C9F61001AD0B
S1130990F6BDF4DAF4302200780000C9F61801AD8F
S11309A0F6BDF0DAF0309780780000C9F610FFAD9C
S11309B0F6BDF2DAF23000CE780000C9F67000C954
S11309C0E87000FAE88B9DE86AE801ADF6BDF4DA58
S11309D0F48DE8480000C9F60A01ADF6BDF0DAF07E
S11309E0300700780000C9F61201ADF6BDF2DAF264
S11309F0302201780000C9F61A01ADF6BDF4DAF42C
S1130A00309740780000C9F612FFADF6BDF0DAF079
S1130A103000CE780000C9E82801C9F62801ADF6F7
S1130A20BDF2FAF2ABBDF68DF66C019DF48DF76C58
S1130A30009DF5DAE8ADF4780000C9F62A01C9F49E
S1130A402A01ADF4BDF0FAF0ABBDF48DF46C019D58
S1130A50F28DF56C009DF3ADF6BDF4DAF4ADF278E9
S1130A600000C9F221FFC9F421FFADF4BDF0FAF092
S1130A708B9DF46AF402ADF2BDF0DAF08DF4480017
S1130A8000C9F201FFC9F401FFADF4BDF0FAF08B27
S1130A909DF46AF404ADF2BDF0DAF08DF448000080
S1130AA0C9F221FFC9F421FFADF4BDF0FAF08B9D2A
S1130AB0F45AF4FBADF2BDF0DAF08DF4480000C94D
S1130AC0F42201C9F22201ADF2BDF0FAF0ABBDF29D
S1130AD08DF26C039DF08DF36C009DF1ADF4BDF2CD
S1130AE0DAF2ADF0780000C9F0E1FFADF0BDF4FA40
S1130AF0F48B9DF25AF2DFADF0DAF48DF248000087
S1130B00C9F0E1FFADF0BDF4FAF48B9DF25AF2BFE7
S1130B10ADF0DAF48DF2480000C9F0E5FFADF0BDA8
S1130B20F4FAF48B9DF26AF220ADF0DAF48DF24817
S1130B300000C9F0E5FFADF0BDF4FAF48B9DF25A64
S1130B40F2BFADF0DAF48DF2480000F6B800BDF063
S1130B50100261EFC2C061CFD7200200FCD80700A9
S1130B60ADF044000061F8EC5C0B00C9F010FF88A4
S1130B70069DF2ADF0BDF4DAF48DF2480000F6B84B
S1130B8000BDF01002D700FC0E0800ADF0440000D8
S1130B9061F8EC870B00C9F012FFADF0BDF2FAF278
S1130BA08B9DF0D7A60BCBF800FE410061CF34003B
S1130BB0013600EF61DF3600EF3000EF27311E44CD
S1130BC00000DD0EB161CF11A9BBA5A5A7A761DF08
S1130BD0EFED61CF3600EF30000061DF3020F12708
S1130BE0311E440000DD0AB161CFBBA7A761DFEF6E
S1130BF0F161CF300000C1C1C1FC4E0700EFFE001F
S1132000303132333435363738396162636465666A
S1132010006E6F20646174612E0A000A002000487B
S1132020656C6C6F20576F726C642E0A003E200042
S11320306563686F006578697400756E6B6E6F77A1
S10720406E2E0A00F2
S9030BA64B
