S00D00006B7A6C6F61642E6D6F74EF
S1070000180BFFFFD7
S1130004E400F000FC000801140120012C01380173
S1130014440150015C016801740180018C01980160
S1130024A401B001BC01C801D401E001EC01F80150
S1130034040210021C022802FFFFFFFFFFFF340228
S113004440024C025802640270027C028802940248
S1130054A002FFFFFFFFFFFFFFFFAC02FFFFB80298
S1130064FFFFFFFFFFFFFFFFFFFFFFFFFFFFFFFF98
S10F0074FFFFFFFFFFFFFFFFFFFFC402C0
S10700C0EFFFE885DD
S10D00C4000000000000000000002E
S10F00D800000000000000000000000018
S11300E461CFC1C3C5C7C6C4C2C061FC61CFC1C3AB
S11300F4C5C7C6C4C2C061FC61CFC1C3C5C7C6C439
S1130104C2C061FC61CFC1C3C5C7C6C4C2C061FC5F
S113011461CFC1C3C5C7C6C4C2C061FC61CFC1C37A
S1130124C5C7C6C4C2C061FC61CFC1C3C5C7C6C408
S1130134C2C061FC61CFC1C3C5C7C6C4C2C061FC2F
S113014461CFC1C3C5C7C6C4C2C061FC61CFC1C34A
S1130154C5C7C6C4C2C061FC61CFC1C3C5C7C6C4D8
S1130164C2C061FC61CFC1C3C5C7C6C4C2C061FCFF
S113017461CFC1C3C5C7C6C4C2C061FC61CFC1C31A
S1130184C5C7C6C4C2C061FC61CFC1C3C5C7C6C4A8
S1130194C2C061FC61CFC1C3C5C7C6C4C2C061FCCF
S11301A461CFC1C3C5C7C6C4C2C061FC61CFC1C3EA
S11301B4C5C7C6C4C2C061FC61CFC1C3C5C7C6C478
S11301C4C2C061FC61CFC1C3C5C7C6C4C2C061FC9F
S11301D461CFC1C3C5C7C6C4C2C061FC61CFC1C3BA
S11301E4C5C7C6C4C2C061FC61CFC1C3C5C7C6C448
S11301F4C2C061FC61CFC1C3C5C7C6C4C2C061FC6F
S113020461CFC1C3C5C7C6C4C2C061FC61CFC1C389
S1130214C5C7C6C4C2C061FC61CFC1C3C5C7C6C417
S1130224C2C061FC61CFC1C3C5C7C6C4C2C061FC3E
S113023461CFC1C3C5C7C6C4C2C061FC61CFC1C359
S1130244C5C7C6C4C2C061FC61CFC1C3C5C7C6C4E7
S1130254C2C061FC61CFC1C3C5C7C6C4C2C061FC0E
S113026461CFC1C3C5C7C6C4C2C061FC61CFC1C329
S1130274C5C7C6C4C2C061FC61CFC1C3C5C7C6C4B7
S1130284C2C061FC61CFC1C3C5C7C6C4C2C061FCDE
S113029461CFC1C3C5C7C6C4C2C061FC61CFC1C3F9
S11302A4C5C7C6C4C2C061FC61CFC1C3C5C7C6C487
S11302B4C2C061FC61CFC1C3C5C7C6C4C2C061FCAE
S11302C461CFC1C3C5C7C6C4C2C061FC2004A808A9
S11302D4BDF0B802EC030300A802BDF0A1B8028883
S11302E40A9DF2ADF0BDF4DAF48DF2480000A80CD6
S11302F404FFFFB80CA80E61D8A104FFFFB80EA830
S11303040E44000071FFA80C61F844000061F3EC92
S1130314DC0200A808BDF0B800BDF01004D7200624
S1130324A80ABDF0B804A80CBDF0B802EC67030039
S1130334A804BDF0A1B804A802BDF2A1B802ADF2AC
S1130344BDF4FAF48B9DF2ADF0BDF4DAF48DF24809
S11303540000A80E04FFFFB80EA81061D8A104FF82
S1130364FFB810A810440000A80E61F8440000610E
S1130374E8EC340300A80ABDF0B800BDF01006D7B9
S11303842008A80CBDF0B806A80EBDF0B804EC070C
S11303940400A806BDF0BDF4FAF48B9DF2A804BDD4
S11303A4F0BDF4FAF48B9DF08DF24BF061F8ECECB3
S11303B40300A806BDF0BDF4FAF48B9DF2A804BDB5
S11303C4F0BDF4FAF48B9DF08DF24BF061E3ECDDB7
S11303D40300E6B800ECE2030030FFFFB800A80015
S11303E4BDF0B802EC1C0400A806A1B806A804A138
S11303F4B804A81004FFFFB810A81261D8A104FF20
S1130404FFB812A812440000A81061F84400006167
S1130414E8EC960300F6B802A802BDF01008D72051
S113042404F6B802EC380400A808A1B808A802BD70
S1130434F0A1B802A808BDF0BDF2FAF28B9DF0D485
S1130444F061E8EC2C0400A802BDF0B800BDF01083
S113045404D72004A808BDF0B802A80ABDF0BDF46E
S1130464FAF48B9DF2A808BDF0BDF4DAF48DF248D9
S11304740000A80ABDF0BDF2FAF28B9DF0D4F0613D
S1130484E8EC8D0400EC9B0400A808A1B808A80AB1
S1130494A1B80AEC5E0400A802BDF4B800BDF010D3
S11304A404D72004EC0C0500A808BDF0BDF4FAF44C
S11304B48B9DF2A80ABDF0BDF4FAF48B9DF08DF285
S11304C44BF061F8EC020500A808BDF0BDF4FAF4A1
S11304D48B9DF2A80ABDF0BDF4FAF48B9DF08DF265
S11304E44BF061E3ECF30400E6B800ECF8040030EC
S11304F4FFFFB800A800BDF0B802EC350500A80859
S1130504A1B808A80AA1B80AA808BDF0BDF2FAF275
S11305148B9DF0D4F061E8ECAC0400A80ABDF0BDF6
S1130524F4FAF48B9DF0D4F061E8ECAC0400F6B872
S113053402A802BDF01004D72004ECA90500A80801
S1130544BDF0BDF4FAF48B9DF2A80ABDF0BDF4FA33
S1130554F48B9DF08DF24BF061F8EC980500A8083B
S1130564BDF0BDF4FAF48B9DF2A80ABDF0BDF4FA13
S1130574F48B9DF08DF24BF061E3EC890500E6B851
S113058400EC8E050030FFFFB800A800BDF0B802EF
S1130594ECDD0500A808A1B808A80AA1B80AA80CAB
S11305A4BDF0B1B80CA808BDF0BDF2FAF28B9DF011
S11305B4D4F061E8ECCF0500A80ABDF0BDF4FAF468
S11305C48B9DF0D4F061F8ECDA0500A80C4400002B
S11305D461E8EC420500F6B802A802BDF01004D7A5
S11305E4200288064C0A61E8ECF80500510D9800D5
S11305F4FCE90A0088069DF09800FCE90A00100250
S1130604D72004EC210600A808BDF0A1B808ADF079
S1130614BDF2FAF28B9DF09800FCE40500A808BD35
S1130624F0BDF2FAF28B9DF0D4F061E8EC0B060015
S1130634F6B802BDF01004D761EFC161CF2010AE4B
S1130644F8BDF6040500BDF4040800B80EBDF4B109
S1130654B80EADF4BDE8DAE8F1480000A818440087
S113066400A81661F844000061E8EC880600A81AA2
S113067444000061E8EC880600A81ABDF4A1B81A85
S1130684ECE60600ECE60600A80EBDF4B1B80E884C
S1130694165C0F9DF088175C009DF188185C009D22
S11306A4F288195C009DF3ADF0040020168B9DF6CE
S11306B4ADF4BDE8DAE88DF6480000A816314D988B
S11306C4168817708818314D9817A818314EB81821
S11306D4A81A44000061F8ECE60600A81ABDF4B1B7
S11306E4B81AA818440000A81661F844000061E888
S11306F4EC8C0600A81A44000061E8EC8C0600A8FF
S11307040EA1BDF0B800FC050600F6B802BDF01059
S11307141061EFC061CFD72006C9F006FFADF0BD6C
S1130724F4FAF48B9DF25AF2FBADF0DAF48DF2484C
S11307340000C9F026FFADF0BDF4FAF48B9DF25A23
S1130744F2FBADF0DAF48DF2480000FCC607003089
S11307541120B800FC050600301000B800F6B802F9
S1130764F6B804FC3C0600301F20B800FC05060063
S113077430FFFFB800F6B802F6B804FC3C060030BB
S11307841F20B800FC050600EC8C07002002C9F009
S11307940001ADF0BDF2FAF2ABBDF08DF05C209D2A
S11307A4F28DF15C009DF3E4F0ADF244000061F8D5
S11307B4ECBA0700F4F08DF0705100B800BDF010ED
S11307C402D761EFC1C361CF2002C9E8F000FAE89F
S11307D48B9DEA6AEA048DEA9B00000000C9E826BE
S11307E401DAE8304400780000C9EA2401C9E824A5
S11307F401FAE8ABBDE88DE86C039DF68DE96C0065
S11308049DF7DAEAADF6780000C9F6E5FFADF6BD6A
S1130814F0FAF08B9DE86AE820ADF6BDF2DAF28DC9
S1130824E8480000C9F6E1FFADF6BDF4FAF48B9D87
S1130834E85AE8DFADF6BDF0DAF08DE8480000C907
S1130844F6E5FFADF6BDF2FAF28B9DE86AE840AD39
S1130854F6BDF4DAF48DE8480000C9F6E1FFADF61C
S1130864BDF0FAF08B9DE85AE8BFADF6BDF2DAF2BA
S11308748DE8480000C9F6E5FFADF6BDF4FAF48B43
S11308849DE86AE880ADF6BDF0DAF08DE848000032
S1130894C9F6E1FFADF6BDF2FAF28B9DE85AE87FA2
S11308A4ADF6BDF4DAF48DE8480000C9F6EDFFAD09
S11308B4F6BDF0FAF08B9DE86AE820ADF6BDF2DAF5
S11308C4F28DE8480000C9F6E9FFADF6BDF4FAF488
S11308D48B9DE86AE820ADF6BDF0DAF08DE84800B7
S11308E400C9F6EDFFADF6BDF2FAF28B9DE86AE8B5
S11308F440ADF6BDF4DAF48DE8480000C9F6E9FF2A
S1130904ADF6BDF0FAF08B9DE86AE840ADF6BDF2B1
S1130914DAF28DE8480000C9F61001ADF6BDF4DA48
S1130924F4302200780000C9F61801ADF6BDF0DAFF
S1130934F0309780780000C9F610FFADF6BDF2DA06
S1130944F23000CE780000C9F67000C9E87000FAED
S1130954E88B9DE86AE801ADF6BDF4DAF48DE84865
S11309640000C9F60A01ADF6BDF0DAF030070078EC
S11309740000C9F61201ADF6BDF2DAF230220178B4
S11309840000C9F61A01ADF6BDF4DAF430974078E4
S11309940000C9F612FFADF6BDF0DAF03000CE78EF
S11309A40000C9E82801C9F62801ADF6BDF2FAF23F
S11309B4ABBDF68DF66C019DF48DF76C009DF5DAF4
S11309C4E8ADF4780000C9F62A01C9F42A01ADF4AB
S11309D4BDF0FAF0ABBDF48DF46C019DF28DF56CB1
S11309E4009DF3ADF6BDF4DAF4ADF2780000C9F27B
S11309F421FFC9F421FFADF4BDF0FAF08B9DF46A34
S1130A04F402ADF2BDF0DAF08DF4480000C9F2014D
S1130A14FFC9F401FFADF4BDF0FAF08B9DF46AF460
S1130A2404ADF2BDF0DAF08DF4480000C9F221FF00
S1130A34C9F421FFADF4BDF0FAF08B9DF45AF4FB34
S1130A44ADF2BDF0DAF08DF4480000C9F42201C916
S1130A54F22201ADF2BDF0FAF0ABBDF28DF26C03FB
S1130A649DF08DF36C009DF1ADF4BDF2DAF2ADF0BE
S1130A74780000C9F0E1FFADF0BDF4FAF48B9DF207
S1130A845AF2DFADF0DAF48DF2480000C9F0E1FF68
S1130A94ADF0BDF4FAF48B9DF25AF2BFADF0DAF482
S1130AA48DF2480000C9F0E5FFADF0BDF4FAF48B13
S1130AB49DF25AF2DFADF0DAF48DF2480000C9F089
S1130AC4E5FFADF0BDF4FAF48B9DF25AF2BFADF03C
S1130AD4DAF48DF2480000F6B800BDF0100261EFBC
S1130AE4C2C061CFD7200200FC900700ADF04400DF
S1130AF40061F8ECEC0A00C9F010FF88069DF2AD21
S1130B04F0BDF4DAF48DF2480000F6B800BDF0103C
S1130B1402D7180BCBF800FE410061CF34E4003651
S1130B2400EF61DF3600EF3000EF27311E44000090
S1130B34DD0EB161CF11A9BBA5A5A7A761DFEFEDB8
S1130B4461CF3600EF30000061DF3000EF27311E43
S1130B54440000DD0AB161CFBBA7A761DFEFF161F7
S1110B64CF300000C1C1C1FC1B0700EFFE0032
S1132000303132333435363738396162636465666A
S11320100048656C6C6F20576F726C64210A000A6B
S104202000BB
S9030B18D9
