S00D00006B7A6C6F61642E6D6F74EF
S1070000670DFFFF86
S113000400010C011801240130013C014801540190
S113001460016C017801840190019C01A801B40180
S1130024C001CC01D801E401F001FC01080214026E
S113003420022C0238024402FFFFFFFFFFFF50029C
S11300445C026802740280028C029802A402B00268
S1130054BC02FFFFFFFFFFFFFFFFC802FFFFD40244
S1130064FFFFFFFFFFFFFFFFFFFFFFFFFFFFFFFF98
S10F0074FFFFFFFFFFFFFFFFFFFFE002A4
S10700C0EFFFE885DD
S10D00C4000000000000000000002E
S11300D80000000000000000000000000000000014
S11300E80000000000000000000000000000000004
S10B00F80000000000000000FC
S113010061CFC1C3C5C7C6C4C2C061FC61CFC1C38E
S1130110C5C7C6C4C2C061FC61CFC1C3C5C7C6C41C
S1130120C2C061FC61CFC1C3C5C7C6C4C2C061FC43
S113013061CFC1C3C5C7C6C4C2C061FC61CFC1C35E
S1130140C5C7C6C4C2C061FC61CFC1C3C5C7C6C4EC
S1130150C2C061FC61CFC1C3C5C7C6C4C2C061FC13
S113016061CFC1C3C5C7C6C4C2C061FC61CFC1C32E
S1130170C5C7C6C4C2C061FC61CFC1C3C5C7C6C4BC
S1130180C2C061FC61CFC1C3C5C7C6C4C2C061FCE3
S113019061CFC1C3C5C7C6C4C2C061FC61CFC1C3FE
S11301A0C5C7C6C4C2C061FC61CFC1C3C5C7C6C48C
S11301B0C2C061FC61CFC1C3C5C7C6C4C2C061FCB3
S11301C061CFC1C3C5C7C6C4C2C061FC61CFC1C3CE
S11301D0C5C7C6C4C2C061FC61CFC1C3C5C7C6C45C
S11301E0C2C061FC61CFC1C3C5C7C6C4C2C061FC83
S11301F061CFC1C3C5C7C6C4C2C061FC61CFC1C39E
S1130200C5C7C6C4C2C061FC61CFC1C3C5C7C6C42B
S1130210C2C061FC61CFC1C3C5C7C6C4C2C061FC52
S113022061CFC1C3C5C7C6C4C2C061FC61CFC1C36D
S1130230C5C7C6C4C2C061FC61CFC1C3C5C7C6C4FB
S1130240C2C061FC61CFC1C3C5C7C6C4C2C061FC22
S113025061CFC1C3C5C7C6C4C2C061FC61CFC1C33D
S1130260C5C7C6C4C2C061FC61CFC1C3C5C7C6C4CB
S1130270C2C061FC61CFC1C3C5C7C6C4C2C061FCF2
S113028061CFC1C3C5C7C6C4C2C061FC61CFC1C30D
S1130290C5C7C6C4C2C061FC61CFC1C3C5C7C6C49B
S11302A0C2C061FC61CFC1C3C5C7C6C4C2C061FCC2
S11302B061CFC1C3C5C7C6C4C2C061FC61CFC1C3DD
S11302C0C5C7C6C4C2C061FC61CFC1C3C5C7C6C46B
S11302D0C2C061FC61CFC1C3C5C7C6C4C2C061FC92
S11302E061CFC1C3C5C7C6C4C2C061FC2004A8088D
S11302F0BDF0B802EC1F0300A802BDF0A1B802884B
S11303000A9DF2ADF0BDF4DAF48DF2480000A80CB9
S113031004FFFFB80CA80E61D8A104FFFFB80EA813
S11303200E44000071FFA80C61F844000061F3EC76
S1130330F80200A808BDF0B800BDF01004D72006EC
S1130340A80ABDF0B804A80CBDF0B802EC83030001
S1130350A804BDF0A1B804A802BDF2A1B802ADF290
S1130360BDF4FAF48B9DF2ADF0BDF4DAF48DF248ED
S11303700000A80E04FFFFB80EA81061D8A104FF66
S1130380FFB810A810440000A80E61F844000061F2
S1130390E8EC500300A80ABDF0B800BDF01006D781
S11303A02008A80CBDF0B806A80EBDF0B804EC23D4
S11303B00400A806BDF0BDF4FAF48B9DF2A804BDB8
S11303C0F0BDF4FAF48B9DF08DF24BF061F8EC087B
S11303D00400A806BDF0BDF4FAF48B9DF2A804BD98
S11303E0F0BDF4FAF48B9DF08DF24BF061E3ECF97F
S11303F00300E6B800ECFE030030FFFFB800A800DD
S1130400BDF0B802EC380400A806A1B806A804A1FF
S1130410B804A81004FFFFB810A81261D8A104FF03
S1130420FFB812A812440000A81061F8440000614B
S1130430E8ECB20300F6B802A802BDF01008D72019
S113044004F6B802EC540400A808A1B808A802BD38
S1130450F0A1B802A808BDF0BDF2FAF28B9DF0D469
S1130460F061E8EC480400A802BDF0B800BDF0104B
S113047004D72004A808BDF0B802A80ABDF0BDF452
S1130480FAF48B9DF2A808BDF0BDF4DAF48DF248BD
S11304900000A80ABDF0BDF2FAF28B9DF0D4F06121
S11304A0E8ECA90400ECB70400A808A1B808A80A5D
S11304B0A1B80AEC7A0400A802BDF4B800BDF0109B
S11304C004D72004EC280500A808BDF0BDF4FAF414
S11304D08B9DF2A80ABDF0BDF4FAF48B9DF08DF269
S11304E04BF061F8EC1E0500A808BDF0BDF4FAF469
S11304F08B9DF2A80ABDF0BDF4FAF48B9DF08DF249
S11305004BF061E3EC0F0500E6B800EC1405003095
S1130510FFFFB800A800BDF0B802EC510500A80820
S1130520A1B808A80AA1B80AA808BDF0BDF2FAF259
S11305308B9DF0D4F061E8ECC80400A80ABDF0BDBE
S1130540F4FAF48B9DF0D4F061E8ECC80400F6B83A
S113055002A802BDF01004D72004ECC50500A808C9
S1130560BDF0BDF4FAF48B9DF2A80ABDF0BDF4FA17
S1130570F48B9DF08DF24BF061F8ECB40500A80803
S1130580BDF0BDF4FAF48B9DF2A80ABDF0BDF4FAF7
S1130590F48B9DF08DF24BF061E3ECA50500E6B819
S11305A000ECAA050030FFFFB800A800BDF0B802B7
S11305B0ECF90500A808A1B808A80AA1B80AA80C73
S11305C0BDF0B1B80CA808BDF0BDF2FAF28B9DF0F5
S11305D0D4F061E8ECEB0500A80ABDF0BDF4FAF430
S11305E08B9DF0D4F061F8ECF60500A80C440000F3
S11305F061E8EC5E0500F6B802A802BDF01004D76D
S1130600200288064C0A61E8EC140600510D98009B
S1130610FC1A0D0088069DF09800FC1A0D001002CB
S1130620D72004FC470D008DF098034C0D61F8ECC5
S11306303B060088039DF0EC3E0600CDF00A8DF0E9
S113064098039DF09800FC00060088039DF01004B8
S1130650D72004EC6D0600A808BDF0A1B808ADF0E1
S1130660BDF2FAF28B9DF09800FC000600A808BDCC
S1130670F0BDF2FAF28B9DF0D4F061E8EC5706007D
S1130680F6B802BDF01004D7200AF6B808FC21061B
S1130690008DF098074C0A61E8ECA00600F1980779
S11306A0A808BDF0B804A1B808A804BDF4B802169F
S11306B0A80E07BDF088079DF2ADF0BDF4DAF48D05
S11306C0F24800008807D161E8EC8D0600A808B163
S11306D0B800BDF0100AD761EFC161CF2010AEF8A9
S11306E0BDF6040500BDF4040800B80EBDF4B1B8AD
S11306F00EADF4BDE8DAE8F1480000A818440000A3
S1130700A81661F844000061E8EC230700A81A4425
S1130710000061E8EC230700A81ABDF4A1B81AECA4
S1130720810700EC810700A80EBDF4B1B80E88164D
S11307305C0F9DF088175C009DF188185C009DF2A9
S113074088195C009DF3ADF0040020168B9DF6AD76
S1130750F4BDE8DAE88DF6480000A816314D981685
S11307608817708818314D9817A818314EB818A8F2
S11307701A44000061F8EC810700A81ABDF4B1B86E
S11307801AA818440000A81661F844000061E8ECB7
S1130790270700A81A44000061E8EC270700A80E08
S11307A0A1BDF0B800FC510600F6B802BDF010106F
S11307B061EFC061CFD7C9F006FFADF0BDF4FAF424
S11307C08B9DF25AF2FBADF0DAF48DF2480000C9C9
S11307D0F026FFADF0BDF4FAF48B9DF25AF2FBADB6
S11307E0F0DAF48DF2480000FCF70900D761EFC19C
S11307F0C361CF201C882971FC61C8EC110800304A
S11308001120B800FC51060030FFFFB816EC0509B2
S113081000F6B818F6B81AECC90800A818BDF0A874
S11308202406F0BDF0BDF2FAF28B9DF09DE8F4E9E8
S1130830F4EAF4EBADE8B800ADEAB802300200B86F
S113084004FCD7060088185C0F980E88195C009881
S11308500F881A5C009810881B5C009811A810443B
S11308600000A80E61F8440F0061E8EC7C08003039
S11308701B20B800FC510600ECB8080088185C0F77
S1130880980A88195C00980B881A5C00980C881BDD
S11308905C00980DA80C440000A80A61F844070005
S11308A061E8ECAF0800301D20B800FC51060030B0
S11308B01D20B800FC510600A818040100B818A8AF
S11308C01A61D8A1040000B81AA826BDF0B812A86D
S11308D028BDF2B814A818BDF0B806A81ABDF2B81D
S11308E008A806BDF0A808BDF2A81446F2A8126133
S11308F0F846F061F3EC1B0800301B20B800FC51F3
S11309000600F6B816A816BDF0101C61EFC2C0614F
S1130910CFD72008FCB60700301F20B800FC5106D2
S113092000302D20B800FC5106003000EFB800FC68
S11309308806003000EFB800303020B802300400E0
S1130940B804FC580500ADF044000061E8EC670908
S1130950003004EFB800FC510600301B20B800FC46
S1130960510600EC2109003000EFB800303520B802
S113097002FCC20400ADF044000061E8EC8409000C
S1130980EC910900303A20B800FC510600EC210932
S113099000F6B806BDF01008D72002C9F00001AD7A
S11309A0F0BDF2FAF2ABBDF08DF05C209DF28DF15A
S11309B05C009DF3E4F0ADF244000061F8ECC3097F
S11309C000F4F08DF0705100B800BDF01002D72093
S11309D006C9F00201ADF0BDF2FAF2ABBDF2B80403
S11309E0BDF0B80288025C20980088035C0098017E
S11309F0A800BDF01006D761EFC1C361CF2002C9C2
S1130A00E8F000FAE88B9DEA6AEA048DEA9B0000AC
S1130A100000C9E82601DAE8304400780000C9EA99
S1130A202401C9E82401FAE8ABBDE88DE86C039D14
S1130A30F68DE96C009DF7DAEAADF6780000C9F6A8
S1130A40E5FFADF6BDF0FAF08B9DE86AE820ADF65F
S1130A50BDF2DAF28DE8480000C9F6E1FFADF6BD5B
S1130A60F4FAF48B9DE85AE8DFADF6BDF0DAF08DC8
S1130A70E8480000C9F6E5FFADF6BDF2FAF28B9D39
S1130A80E86AE840ADF6BDF4DAF48DE8480000C940
S1130A90F6E1FFADF6BDF0FAF08B9DE85AE8BFAD84
S1130AA0F6BDF2DAF28DE8480000C9F6E5FFADF6CE
S1130AB0BDF4FAF48B9DE86AE880ADF6BDF0DAF097
S1130AC08DE8480000C9F6E1FFADF6BDF2FAF28BFD
S1130AD09DE85AE87FADF6BDF4DAF48DE8480000ED
S1130AE0C9F6EDFFADF6BDF0FAF08B9DE86AE8209B
S1130AF0ADF6BDF2DAF28DE8480000C9F6E9FFADC3
S1130B00F6BDF4FAF48B9DE86AE820ADF6BDF0DAA0
S1130B10F08DE8480000C9F6EDFFADF6BDF2FAF23B
S1130B208B9DE86AE840ADF6BDF4DAF48DE8480040
S1130B3000C9F6E9FFADF6BDF0FAF08B9DE86AE86E
S1130B4040ADF6BDF2DAF28DE8480000C9F61001B6
S1130B50ADF6BDF4DAF4302200780000C9F61801CD
S1130B60ADF6BDF0DAF0309780780000C9F610FFDA
S1130B70ADF6BDF2DAF23000CE780000C9F67000AE
S1130B80C9E87000FAE88B9DE86AE801ADF6BDF4A7
S1130B90DAF48DE8480000C9F60A01ADF6BDF0DAD2
S1130BA0F0300700780000C9F61201ADF6BDF2DAA4
S1130BB0F2302201780000C9F61A01ADF6BDF4DA6C
S1130BC0F4309740780000C9F612FFADF6BDF0DAB4
S1130BD0F03000CE780000C9E82801C9F62801AD3C
S1130BE0F6BDF2FAF2ABBDF68DF66C019DF48DF70D
S1130BF06C009DF5DAE8ADF4780000C9F62A01C965
S1130C00F42A01ADF4BDF0FAF0ABBDF48DF46C013F
S1130C109DF28DF56C009DF3ADF6BDF4DAF4ADF202
S1130C20780000C9F221FFC9F421FFADF4BDF0FA48
S1130C30F08B9DF46AF402ADF2BDF0DAF08DF44865
S1130C400000C9F201FFC9F401FFADF4BDF0FAF0F0
S1130C508B9DF46AF404ADF2BDF0DAF08DF4480033
S1130C6000C9F221FFC9F421FFADF4BDF0FAF08B05
S1130C709DF45AF4FBADF2BDF0DAF08DF4480000B7
S1130C80C9F42201C9F22201ADF2BDF0FAF0ABBD04
S1130C90F28DF26C039DF08DF36C009DF1ADF4BD0B
S1130CA0F2DAF2ADF0780000C9F0E1FFADF0BDF486
S1130CB0FAF48B9DF25AF2DFADF0DAF48DF24800CB
S1130CC000C9F0E1FFADF0BDF4FAF48B9DF25AF2E5
S1130CD0BFADF0DAF48DF2480000C9F0E5FFADF0E5
S1130CE0BDF4FAF48B9DF25AF2DFADF0DAF48DF232
S1130CF0480000C9F0E5FFADF0BDF4FAF48B9DF2B5
S1130D005AF2BFADF0DAF48DF2480000F6B800BD37
S1130D10F0100261EFC2C061CFD7200200FC990934
S1130D2000ADF044000061F8EC1D0D00C9F010FFA7
S1130D3088069DF2ADF0BDF4DAF48DF2480000F6B9
S1130D40B800BDF01002D700FCCF0900ADF044009C
S1130D500061F8EC480D00C9F012FFADF0BDF2FAE5
S1130D60F28B9DF0D7670DCBF800FE410061CF34C4
S1130D7000013600EF61DF3600EF3000EF27311E4F
S1130D80440000DD0EB161CF11A9BBA5A5A7A761E1
S1130D90DFEFED61CF3600EF30000061DF3020EF90
S1130DA027311E440000DD0AB161CFBBA7A761DF74
S1130DB0EFF161CF300000C1C1C1FC120900EFFEA8
S1132000303132333435363738396162636465666A
S1132010006E6F20646174612E0A000A002000487B
S1132020656C6C6F20576F726C642E0A003E200042
S11320306563686F006578697400756E6B6E6F77A1
S10720406E2E0A00F2
S9030D6788
