S00D00006B7A6C6F61642E6D6F74EF
S10700001D0BFFFFD2
S1130004E400F000FC000801140120012C01380173
S1130014440150015C016801740180018C01980160
S1130024A401B001BC01C801D401E001EC01F80150
S1130034040210021C022802FFFFFFFFFFFF340228
S113004440024C025802640270027C028802940248
S1130054A002FFFFFFFFFFFFFFFFAC02FFFFB80298
S1130064FFFFFFFFFFFFFFFFFFFFFFFFFFFFFFFF98
S10F0074FFFFFFFFFFFFFFFFFFFFC402C0
S10700C0EFFFE885DD
S10D00C4000000000000000000002E
S10F00D800000000000000000000000018
S11300E461CFC1C3C5C7C6C4C2C061FC61CFC1C3AB
S11300F4C5C7C6C4C2C061FC61CFC1C3C5C7C6C439
S1130104C2C061FC61CFC1C3C5C7C6C4C2C061FC5F
S113011461CFC1C3C5C7C6C4C2C061FC61CFC1C37A
S1130124C5C7C6C4C2C061FC61CFC1C3C5C7C6C408
S1130134C2C061FC61CFC1C3C5C7C6C4C2C061FC2F
S113014461CFC1C3C5C7C6C4C2C061FC61CFC1C34A
S1130154C5C7C6C4C2C061FC61CFC1C3C5C7C6C4D8
S1130164C2C061FC61CFC1C3C5C7C6C4C2C061FCFF
S113017461CFC1C3C5C7C6C4C2C061FC61CFC1C31A
S1130184C5C7C6C4C2C061FC61CFC1C3C5C7C6C4A8
S1130194C2C061FC61CFC1C3C5C7C6C4C2C061FCCF
S11301A461CFC1C3C5C7C6C4C2C061FC61CFC1C3EA
S11301B4C5C7C6C4C2C061FC61CFC1C3C5C7C6C478
S11301C4C2C061FC61CFC1C3C5C7C6C4C2C061FC9F
S11301D461CFC1C3C5C7C6C4C2C061FC61CFC1C3BA
S11301E4C5C7C6C4C2C061FC61CFC1C3C5C7C6C448
S11301F4C2C061FC61CFC1C3C5C7C6C4C2C061FC6F
S113020461CFC1C3C5C7C6C4C2C061FC61CFC1C389
S1130214C5C7C6C4C2C061FC61CFC1C3C5C7C6C417
S1130224C2C061FC61CFC1C3C5C7C6C4C2C061FC3E
S113023461CFC1C3C5C7C6C4C2C061FC61CFC1C359
S1130244C5C7C6C4C2C061FC61CFC1C3C5C7C6C4E7
S1130254C2C061FC61CFC1C3C5C7C6C4C2C061FC0E
S113026461CFC1C3C5C7C6C4C2C061FC61CFC1C329
S1130274C5C7C6C4C2C061FC61CFC1C3C5C7C6C4B7
S1130284C2C061FC61CFC1C3C5C7C6C4C2C061FCDE
S113029461CFC1C3C5C7C6C4C2C061FC61CFC1C3F9
S11302A4C5C7C6C4C2C061FC61CFC1C3C5C7C6C487
S11302B4C2C061FC61CFC1C3C5C7C6C4C2C061FCAE
S11302C461CFC1C3C5C7C6C4C2C061FC2004A808A9
S11302D4BDF0B802EC030300A802BDF0A1B8028883
S11302E40A9DF2ADF0BDF4DAF48DF2480000A80CD6
S11302F404FFFFB80CA80E61D8A104FFFFB80EA830
S11303040E44000071FFA80C61F844000061F3EC92
S1130314DC0200A808BDF0B800BDF01004D7200624
S1130324A80ABDF0B804A80CBDF0B802EC67030039
S1130334A804BDF0A1B804A802BDF2A1B802ADF2AC
S1130344BDF4FAF48B9DF2ADF0BDF4DAF48DF24809
S11303540000A80E04FFFFB80EA81061D8A104FF82
S1130364FFB810A810440000A80E61F8440000610E
S1130374E8EC340300A80ABDF0B800BDF01006D7B9
S11303842008A80CBDF0B806A80EBDF0B804EC070C
S11303940400A806BDF0BDF4FAF48B9DF2A804BDD4
S11303A4F0BDF4FAF48B9DF08DF24BF061F8ECECB3
S11303B40300A806BDF0BDF4FAF48B9DF2A804BDB5
S11303C4F0BDF4FAF48B9DF08DF24BF061E3ECDDB7
S11303D40300E6B800ECE2030030FFFFB800A80015
S11303E4BDF0B802EC1C0400A806A1B806A804A138
S11303F4B804A81004FFFFB810A81261D8A104FF20
S1130404FFB812A812440000A81061F84400006167
S1130414E8EC960300F6B802A802BDF01008D72051
S113042404F6B802EC380400A808A1B808A802BD70
S1130434F0A1B802A808BDF0BDF2FAF28B9DF0D485
S1130444F061E8EC2C0400A802BDF0B800BDF01083
S113045404D72004A808BDF0B802A80ABDF0BDF46E
S1130464FAF48B9DF2A808BDF0BDF4DAF48DF248D9
S11304740000A80ABDF0BDF2FAF28B9DF0D4F0613D
S1130484E8EC8D0400EC9B0400A808A1B808A80AB1
S1130494A1B80AEC5E0400A802BDF4B800BDF010D3
S11304A404D72004EC0C0500A808BDF0BDF4FAF44C
S11304B48B9DF2A80ABDF0BDF4FAF48B9DF08DF285
S11304C44BF061F8EC020500A808BDF0BDF4FAF4A1
S11304D48B9DF2A80ABDF0BDF4FAF48B9DF08DF265
S11304E44BF061E3ECF30400E6B800ECF8040030EC
S11304F4FFFFB800A800BDF0B802EC350500A80859
S1130504A1B808A80AA1B80AA808BDF0BDF2FAF275
S11305148B9DF0D4F061E8ECAC0400A80ABDF0BDF6
S1130524F4FAF48B9DF0D4F061E8ECAC0400F6B872
S113053402A802BDF01004D72004ECA90500A80801
S1130544BDF0BDF4FAF48B9DF2A80ABDF0BDF4FA33
S1130554F48B9DF08DF24BF061F8EC980500A8083B
S1130564BDF0BDF4FAF48B9DF2A80ABDF0BDF4FA13
S1130574F48B9DF08DF24BF061E3EC890500E6B851
S113058400EC8E050030FFFFB800A800BDF0B802EF
S1130594ECDD0500A808A1B808A80AA1B80AA80CAB
S11305A4BDF0B1B80CA808BDF0BDF2FAF28B9DF011
S11305B4D4F061E8ECCF0500A80ABDF0BDF4FAF468
S11305C48B9DF0D4F061F8ECDA0500A80C4400002B
S11305D461E8EC420500F6B802A802BDF01004D7A5
S11305E4200288064C0A61E8ECF80500510D9800D5
S11305F4FCEE0A0088069DF09800FCEE0A00100246
S1130604D72004EC210600A808BDF0A1B808ADF079
S1130614BDF2FAF28B9DF09800FCE40500A808BD35
S1130624F0BDF2FAF28B9DF0D4F061E8EC0B060015
S1130634F6B802BDF01004D761EFC161CF2010AE4B
S1130644F8BDF6040500BDF4040800B80EBDF4B109
S1130654B80EADF4BDE8DAE8F1480000A818440087
S113066400A81661F844000061E8EC880600A81AA2
S113067444000061E8EC880600A81ABDF4A1B81A85
S1130684ECE60600ECE60600A80EBDF4B1B80E884C
S1130694165C0F9DF088175C009DF188185C009D22
S11306A4F288195C009DF3ADF0040020168B9DF6CE
S11306B4ADF4BDE8DAE88DF6480000A816314D988B
S11306C4168817708818314D9817A818314EB81821
S11306D4A81A44000061F8ECE60600A81ABDF4B1B7
S11306E4B81AA818440000A81661F844000061E888
S11306F4EC8C0600A81A44000061E8EC8C0600A8FF
S11307040EA1BDF0B800FC050600F6B802BDF01059
S11307141061EFC061CFD7C9F006FFADF0BDF4FAA4
S1130724F48B9DF25AF2FBADF0DAF48DF24800003A
S1130734C9F026FFADF0BDF4FAF48B9DF25AF2FB36
S1130744ADF0DAF48DF2480000FCCB0700D72006A4
S1130754FC1B0700301120B800FC05060030100013
S1130764B800F6B802F6B804FC3C0600301F20B802
S113077400FC05060030FFFFB800F6B802F6B80422
S1130784FC3C0600301F20B800FC050600EC910771
S1130794002002C9F00001ADF0BDF2FAF2ABBDF0E5
S11307A48DF05C209DF28DF15C009DF3E4F0ADF2DC
S11307B444000061F8ECBF0700F4F08DF0705100C0
S11307C4B800BDF01002D761EFC1C361CF2002C9E4
S11307D4E8F000FAE88B9DEA6AEA048DEA9B0000DB
S11307E40000C9E82601DAE8304400780000C9EAC8
S11307F42401C9E82401FAE8ABBDE88DE86C039D43
S1130804F68DE96C009DF7DAEAADF6780000C9F6D6
S1130814E5FFADF6BDF0FAF08B9DE86AE820ADF68D
S1130824BDF2DAF28DE8480000C9F6E1FFADF6BD89
S1130834F4FAF48B9DE85AE8DFADF6BDF0DAF08DF6
S1130844E8480000C9F6E5FFADF6BDF2FAF28B9D67
S1130854E86AE840ADF6BDF4DAF48DE8480000C96E
S1130864F6E1FFADF6BDF0FAF08B9DE85AE8BFADB2
S1130874F6BDF2DAF28DE8480000C9F6E5FFADF6FC
S1130884BDF4FAF48B9DE86AE880ADF6BDF0DAF0C5
S11308948DE8480000C9F6E1FFADF6BDF2FAF28B2B
S11308A49DE85AE87FADF6BDF4DAF48DE84800001B
S11308B4C9F6EDFFADF6BDF0FAF08B9DE86AE820C9
S11308C4ADF6BDF2DAF28DE8480000C9F6E9FFADF1
S11308D4F6BDF4FAF48B9DE86AE820ADF6BDF0DACF
S11308E4F08DE8480000C9F6EDFFADF6BDF2FAF26A
S11308F48B9DE86AE840ADF6BDF4DAF48DE848006F
S113090400C9F6E9FFADF6BDF0FAF08B9DE86AE89C
S113091440ADF6BDF2DAF28DE8480000C9F61001E4
S1130924ADF6BDF4DAF4302200780000C9F61801FB
S1130934ADF6BDF0DAF0309780780000C9F610FF08
S1130944ADF6BDF2DAF23000CE780000C9F67000DC
S1130954C9E87000FAE88B9DE86AE801ADF6BDF4D5
S1130964DAF48DE8480000C9F60A01ADF6BDF0DA00
S1130974F0300700780000C9F61201ADF6BDF2DAD2
S1130984F2302201780000C9F61A01ADF6BDF4DA9A
S1130994F4309740780000C9F612FFADF6BDF0DAE2
S11309A4F03000CE780000C9E82801C9F62801AD6A
S11309B4F6BDF2FAF2ABBDF68DF66C019DF48DF73B
S11309C46C009DF5DAE8ADF4780000C9F62A01C993
S11309D4F42A01ADF4BDF0FAF0ABBDF48DF46C016E
S11309E49DF28DF56C009DF3ADF6BDF4DAF4ADF231
S11309F4780000C9F221FFC9F421FFADF4BDF0FA77
S1130A04F08B9DF46AF402ADF2BDF0DAF08DF44893
S1130A140000C9F201FFC9F401FFADF4BDF0FAF01E
S1130A248B9DF46AF404ADF2BDF0DAF08DF4480061
S1130A3400C9F221FFC9F421FFADF4BDF0FAF08B33
S1130A449DF45AF4FBADF2BDF0DAF08DF4480000E5
S1130A54C9F42201C9F22201ADF2BDF0FAF0ABBD32
S1130A64F28DF26C039DF08DF36C009DF1ADF4BD39
S1130A74F2DAF2ADF0780000C9F0E1FFADF0BDF4B4
S1130A84FAF48B9DF25AF2DFADF0DAF48DF24800F9
S1130A9400C9F0E1FFADF0BDF4FAF48B9DF25AF213
S1130AA4BFADF0DAF48DF2480000C9F0E5FFADF013
S1130AB4BDF4FAF48B9DF25AF2DFADF0DAF48DF260
S1130AC4480000C9F0E5FFADF0BDF4FAF48B9DF2E3
S1130AD45AF2BFADF0DAF48DF2480000F6B800BD66
S1130AE4F0100261EFC2C061CFD7200200FC950769
S1130AF400ADF044000061F8ECF10A00C9F010FF05
S1130B0488069DF2ADF0BDF4DAF48DF2480000F6E7
S1130B14B800BDF01002D71D0BCBF800FE410061F4
S1130B24CF34E4003600EF61DF3600EF3000EF2706
S1130B34311E440000DD0EB161CF11A9BBA5A5A7E8
S1130B44A761DFEFED61CF3600EF30000061DF30E5
S1130B5400EF27311E440000DD0AB161CFBBA7A713
S1130B6461DFEFF161CF300000C1C1C1FC52070065
S1050B74EFFE8E
S1132000303132333435363738396162636465666A
S11320100048656C6C6F20576F726C64210A000A6B
S104202000BB
S9030B1DD4
